{
  "contractName": "Room",
  "abi": [
    {
      "constant": true,
      "inputs": [
        {
          "name": "",
          "type": "uint256"
        }
      ],
      "name": "Tables",
      "outputs": [
        {
          "name": "",
          "type": "address"
        }
      ],
      "payable": false,
      "stateMutability": "view",
      "type": "function"
    },
    {
      "constant": false,
      "inputs": [
        {
          "name": "minimum",
          "type": "uint256"
        }
      ],
      "name": "createTable",
      "outputs": [
        {
          "name": "",
          "type": "address[]"
        }
      ],
      "payable": true,
      "stateMutability": "payable",
      "type": "function"
    },
    {
      "constant": true,
      "inputs": [],
      "name": "getCreatedTables",
      "outputs": [
        {
          "name": "",
          "type": "address[]"
        }
      ],
      "payable": false,
      "stateMutability": "view",
      "type": "function"
    }
  ],
  "bytecode": "0x6060604052341561000f57600080fd5b610b7c8061001e6000396000f300606060405260043610610057576000357c0100000000000000000000000000000000000000000000000000000000900463ffffffff168063185e9de11461005c578063508aea8c146100c65780636e260b0014610133575b600080fd5b341561006757600080fd5b61006f610196565b6040518080602001828103825283818151815260200191508051906020019060200280838360005b838110156100b2578082015181840152602081019050610097565b505050509050019250505060405180910390f35b6100dc600480803590602001909190505061022a565b6040518080602001828103825283818151815260200191508051906020019060200280838360005b8381101561011f578082015181840152602081019050610104565b505050509050019250505060405180910390f35b341561013e57600080fd5b6101546004808035906020019091905050610353565b604051808273ffffffffffffffffffffffffffffffffffffffff1673ffffffffffffffffffffffffffffffffffffffff16815260200191505060405180910390f35b61019e610392565b600080548060200260200160405190810160405280929190818152602001828054801561022057602002820191906000526020600020905b8160009054906101000a900473ffffffffffffffffffffffffffffffffffffffff1673ffffffffffffffffffffffffffffffffffffffff16815260200190600101908083116101d6575b5050505050905090565b610232610392565b6000348361023e6103a6565b808281526020019150506040518091039082f080151561025d57600080fd5b905090506000805480600101828161027591906103b6565b9160005260206000209001600083909190916101000a81548173ffffffffffffffffffffffffffffffffffffffff021916908373ffffffffffffffffffffffffffffffffffffffff16021790555050600080548060200260200160405190810160405280929190818152602001828054801561034657602002820191906000526020600020905b8160009054906101000a900473ffffffffffffffffffffffffffffffffffffffff1673ffffffffffffffffffffffffffffffffffffffff16815260200190600101908083116102fc575b5050505050915050919050565b60008181548110151561036257fe5b90600052602060002090016000915054906101000a900473ffffffffffffffffffffffffffffffffffffffff1681565b602060405190810160405280600081525090565b6040516107498061040883390190565b8154818355818115116103dd578183600052602060002091820191016103dc91906103e2565b5b505050565b61040491905b808211156104005760008160009055506001016103e8565b5090565b905600606060405260028055604051602080610749833981016040528080519060200190919050508060018190555061004661004c640100000000026101ef176401000000009004565b50610289565b6100546101d9565b60025460008054905010151561006957600080fd5b600154341015151561007a57600080fd5b600360003373ffffffffffffffffffffffffffffffffffffffff1673ffffffffffffffffffffffffffffffffffffffff16815260200190815260200160002060009054906101000a900460ff161515156100d357600080fd5b6001600360003373ffffffffffffffffffffffffffffffffffffffff1673ffffffffffffffffffffffffffffffffffffffff16815260200190815260200160002060006101000a81548160ff02191690831515021790555060408051908101604052803373ffffffffffffffffffffffffffffffffffffffff1681526020013481525090506000805480600101828161016c9190610209565b9160005260206000209060020201600083909190915060008201518160000160006101000a81548173ffffffffffffffffffffffffffffffffffffffff021916908373ffffffffffffffffffffffffffffffffffffffff1602179055506020820151816001015550505050565b6040805190810160405280600073ffffffffffffffffffffffffffffffffffffffff168152602001600081525090565b81548183558181151161023657600202816002028360005260206000209182019101610235919061023b565b5b505050565b61028691905b8082111561028257600080820160006101000a81549073ffffffffffffffffffffffffffffffffffffffff0219169055600182016000905550600201610241565b5090565b90565b6104b1806102986000396000f300606060405260043610610078576000357c0100000000000000000000000000000000000000000000000000000000900463ffffffff16806336b02f2e1461007d5780634529cae7146100ce5780634c2412a2146100f7578063582ee10314610120578063c38a8afd1461012a578063f71d96cb14610153575b600080fd5b341561008857600080fd5b6100b4600480803573ffffffffffffffffffffffffffffffffffffffff169060200190919050506101bd565b604051808215151515815260200191505060405180910390f35b34156100d957600080fd5b6100e16101dd565b6040518082815260200191505060405180910390f35b341561010257600080fd5b61010a6101e9565b6040518082815260200191505060405180910390f35b6101286101ef565b005b341561013557600080fd5b61013d61037c565b6040518082815260200191505060405180910390f35b341561015e57600080fd5b6101746004808035906020019091905050610382565b604051808373ffffffffffffffffffffffffffffffffffffffff1673ffffffffffffffffffffffffffffffffffffffff1681526020018281526020019250505060405180910390f35b60036020528060005260406000206000915054906101000a900460ff1681565b60008080549050905090565b60025481565b6101f76103d5565b60025460008054905010151561020c57600080fd5b600154341015151561021d57600080fd5b600360003373ffffffffffffffffffffffffffffffffffffffff1673ffffffffffffffffffffffffffffffffffffffff16815260200190815260200160002060009054906101000a900460ff1615151561027657600080fd5b6001600360003373ffffffffffffffffffffffffffffffffffffffff1673ffffffffffffffffffffffffffffffffffffffff16815260200190815260200160002060006101000a81548160ff02191690831515021790555060408051908101604052803373ffffffffffffffffffffffffffffffffffffffff1681526020013481525090506000805480600101828161030f9190610405565b9160005260206000209060020201600083909190915060008201518160000160006101000a81548173ffffffffffffffffffffffffffffffffffffffff021916908373ffffffffffffffffffffffffffffffffffffffff1602179055506020820151816001015550505050565b60015481565b60008181548110151561039157fe5b90600052602060002090600202016000915090508060000160009054906101000a900473ffffffffffffffffffffffffffffffffffffffff16908060010154905082565b6040805190810160405280600073ffffffffffffffffffffffffffffffffffffffff168152602001600081525090565b815481835581811511610432576002028160020283600052602060002091820191016104319190610437565b5b505050565b61048291905b8082111561047e57600080820160006101000a81549073ffffffffffffffffffffffffffffffffffffffff021916905560018201600090555060020161043d565b5090565b905600a165627a7a72305820ab982bb1dba9438ed608f810ef139a68c6ca39c6770db2fd27935ddd1487d15d0029a165627a7a72305820bea7bff439eeb5b319b63b37a7a85cde5138844de70b95bec5613edfee5cef690029",
  "source": "pragma solidity ^0.4.0;\nimport \"./Table.sol\";\n\ncontract Room {\n    address[] public Tables;\n    function createTable(uint minimum) public payable returns(address[]) {\n        address createdTable = (new Table).value(msg.value)(minimum);\n        Tables.push(createdTable);\n        return Tables;\n    }\n    \n    function getCreatedTables() public view returns(address[]) {\n        return Tables;\n    }\n}\n",
  "sourcePath": "/Users/mac/workspace/web3/newGame/contracts/Room.sol",
  "compiler": {
    "name": "solc",
    "version": "0.4.21+commit.dfe3193c.Emscripten.clang"
  },
  "schemaVersion": "2.0.0",
  "updatedAt": "2018-04-07T21:59:39.957Z"
}