{
  "contractName": "Table",
  "abi": [
    {
      "constant": true,
      "inputs": [
        {
          "name": "",
          "type": "address"
        }
      ],
      "name": "availablePlayers",
      "outputs": [
        {
          "name": "",
          "type": "bool"
        }
      ],
      "payable": false,
      "stateMutability": "view",
      "type": "function"
    },
    {
      "constant": true,
      "inputs": [],
      "name": "maxPlayers",
      "outputs": [
        {
          "name": "",
          "type": "uint256"
        }
      ],
      "payable": false,
      "stateMutability": "view",
      "type": "function"
    },
    {
      "constant": true,
      "inputs": [],
      "name": "minimumBet",
      "outputs": [
        {
          "name": "",
          "type": "uint256"
        }
      ],
      "payable": false,
      "stateMutability": "view",
      "type": "function"
    },
    {
      "constant": true,
      "inputs": [
        {
          "name": "",
          "type": "uint256"
        }
      ],
      "name": "players",
      "outputs": [
        {
          "name": "player",
          "type": "address"
        },
        {
          "name": "value",
          "type": "uint256"
        }
      ],
      "payable": false,
      "stateMutability": "view",
      "type": "function"
    },
    {
      "inputs": [
        {
          "name": "minimum",
          "type": "uint256"
        }
      ],
      "payable": true,
      "stateMutability": "payable",
      "type": "constructor"
    },
    {
      "constant": true,
      "inputs": [],
      "name": "getTotalPlayers",
      "outputs": [
        {
          "name": "",
          "type": "uint256"
        }
      ],
      "payable": false,
      "stateMutability": "view",
      "type": "function"
    },
    {
      "constant": false,
      "inputs": [],
      "name": "enterTable",
      "outputs": [],
      "payable": true,
      "stateMutability": "payable",
      "type": "function"
    }
  ],
  "bytecode": "0x606060405260028055604051602080610749833981016040528080519060200190919050508060018190555061004661004c640100000000026101ef176401000000009004565b50610289565b6100546101d9565b60025460008054905010151561006957600080fd5b600154341015151561007a57600080fd5b600360003373ffffffffffffffffffffffffffffffffffffffff1673ffffffffffffffffffffffffffffffffffffffff16815260200190815260200160002060009054906101000a900460ff161515156100d357600080fd5b6001600360003373ffffffffffffffffffffffffffffffffffffffff1673ffffffffffffffffffffffffffffffffffffffff16815260200190815260200160002060006101000a81548160ff02191690831515021790555060408051908101604052803373ffffffffffffffffffffffffffffffffffffffff1681526020013481525090506000805480600101828161016c9190610209565b9160005260206000209060020201600083909190915060008201518160000160006101000a81548173ffffffffffffffffffffffffffffffffffffffff021916908373ffffffffffffffffffffffffffffffffffffffff1602179055506020820151816001015550505050565b6040805190810160405280600073ffffffffffffffffffffffffffffffffffffffff168152602001600081525090565b81548183558181151161023657600202816002028360005260206000209182019101610235919061023b565b5b505050565b61028691905b8082111561028257600080820160006101000a81549073ffffffffffffffffffffffffffffffffffffffff0219169055600182016000905550600201610241565b5090565b90565b6104b1806102986000396000f300606060405260043610610078576000357c0100000000000000000000000000000000000000000000000000000000900463ffffffff16806336b02f2e1461007d5780634529cae7146100ce5780634c2412a2146100f7578063582ee10314610120578063c38a8afd1461012a578063f71d96cb14610153575b600080fd5b341561008857600080fd5b6100b4600480803573ffffffffffffffffffffffffffffffffffffffff169060200190919050506101bd565b604051808215151515815260200191505060405180910390f35b34156100d957600080fd5b6100e16101dd565b6040518082815260200191505060405180910390f35b341561010257600080fd5b61010a6101e9565b6040518082815260200191505060405180910390f35b6101286101ef565b005b341561013557600080fd5b61013d61037c565b6040518082815260200191505060405180910390f35b341561015e57600080fd5b6101746004808035906020019091905050610382565b604051808373ffffffffffffffffffffffffffffffffffffffff1673ffffffffffffffffffffffffffffffffffffffff1681526020018281526020019250505060405180910390f35b60036020528060005260406000206000915054906101000a900460ff1681565b60008080549050905090565b60025481565b6101f76103d5565b60025460008054905010151561020c57600080fd5b600154341015151561021d57600080fd5b600360003373ffffffffffffffffffffffffffffffffffffffff1673ffffffffffffffffffffffffffffffffffffffff16815260200190815260200160002060009054906101000a900460ff1615151561027657600080fd5b6001600360003373ffffffffffffffffffffffffffffffffffffffff1673ffffffffffffffffffffffffffffffffffffffff16815260200190815260200160002060006101000a81548160ff02191690831515021790555060408051908101604052803373ffffffffffffffffffffffffffffffffffffffff1681526020013481525090506000805480600101828161030f9190610405565b9160005260206000209060020201600083909190915060008201518160000160006101000a81548173ffffffffffffffffffffffffffffffffffffffff021916908373ffffffffffffffffffffffffffffffffffffffff1602179055506020820151816001015550505050565b60015481565b60008181548110151561039157fe5b90600052602060002090600202016000915090508060000160009054906101000a900473ffffffffffffffffffffffffffffffffffffffff16908060010154905082565b6040805190810160405280600073ffffffffffffffffffffffffffffffffffffffff168152602001600081525090565b815481835581811511610432576002028160020283600052602060002091820191016104319190610437565b5b505050565b61048291905b8082111561047e57600080820160006101000a81549073ffffffffffffffffffffffffffffffffffffffff021916905560018201600090555060020161043d565b5090565b905600a165627a7a72305820ab982bb1dba9438ed608f810ef139a68c6ca39c6770db2fd27935ddd1487d15d0029",
  "source": "pragma solidity ^0.4.0;\n\ncontract Table {\n    struct Player {\n        address player;\n        uint value;\n    }\n    \n    Player[] public players;\n    uint public minimumBet;\n    uint public maxPlayers = 2;\n    mapping(address => bool) public availablePlayers;\n    \n    function Table(uint minimum) public payable {\n        minimumBet = minimum;\n        enterTable();\n    }\n    \n    modifier restricted() {\n        require(players.length < maxPlayers);\n        _;\n    }\n    \n    function getTotalPlayers() public view returns(uint) {\n        return players.length;\n    }\n    \n    function enterTable() public restricted payable {\n        require(msg.value >= minimumBet);\n        require(!availablePlayers[msg.sender]);\n        \n        availablePlayers[msg.sender] = true;\n        Player memory newPlayer = Player({\n            player: msg.sender,\n            value: msg.value\n        });\n        \n        players.push(newPlayer);\n    }\n}",
  "sourcePath": "/Users/mac/workspace/web3/newGame/contracts/Table.sol",
  "compiler": {
    "name": "solc",
    "version": "0.4.21+commit.dfe3193c.Emscripten.clang"
  },
  "schemaVersion": "2.0.0",
  "updatedAt": "2018-04-07T21:59:38.908Z"
}